:100000000C942A000C9447000C9447000C94470071
:100010000C9447000C9447000C9447000C94470044
:100020000C9447000C94B8030C944E040C942704D1
:100030000C9447000C9447000C9447000C94470024
:100040000C9447000C9447000C9447000C94470014
:100050000C94470011241FBECFE5D8E0DEBFCDBF12
:1000600010E0A0E6B0E0E2E3F9E002C005900D92F6
:10007000AC36B107D9F720E0ACE6B0E001C01D9284
:10008000A737B207E1F70E941D030C9497040C9464
:10009000000080EF87BB8FE088BB089588B38F7E18
:1000A00088BB88B3806288BB88B3806488BB88B310
:1000B000806888BBB09B5CC0B19B5CC0B29B5CC0DD
:1000C000B39B5CC08FE99FE00197F1F700C000008F
:1000D00088B3806188BB88B38F7D88BB88B3806418
:1000E00088BB88B3806888BBB09B4AC0B19B4AC0BC
:1000F000B29B4AC0B39B4AC08FE99FE00197F1F7DA
:1001000000C0000088B3806188BB88B3806288BB70
:1001100088B38F7B88BB88B3806888BBB09B38C0AE
:10012000B19B38C0B29B38C0B39B38C08FE99FE009
:100130000197F1F700C0000088B3806188BB88B3E5
:10014000806288BB88B3806488BB88B38F7788BBA4
:10015000B09B26C0B19B26C0B29B26C0B39B26C0D5
:100160008FE99FE00197F1F700C0000080E008955B
:1001700087E3089584E3089581E3089583E608956D
:1001800088E3089585E3089582E3089580E3089560
:1001900089E3089586E3089583E308958DE3089540
:1001A0008CE508958AE208958DE208958BE2089522
:1001B0009BB3977F9BBB882324F49BB390689BBB26
:1001C00003C09BB39F779BBB86FF04C09BB3906427
:1001D0009BBB03C09BB39F7B9BBB85FF04C09BB3B2
:1001E00090629BBB03C09BB39F7D9BBB84FF04C0FD
:1001F0009BB390619BBB03C09BB39F7E9BBB9BB398
:1002000094609BBBEFE9FFE03197F1F700C000007D
:100210009BB39B7F9BBBEFE9FFE03197F1F700C0F9
:10022000000083FF04C09BB390689BBB03C09BB3DB
:100230009F779BBB82FF04C09BB390649BBB03C0B2
:100240009BB39F7B9BBB81FF04C09BB390629BBB16
:1002500003C09BB39F7D9BBB80FF04C08BB38061B9
:100260008BBB03C08BB38F7E8BBB8BB384608BBB8C
:100270008FE99FE00197F1F700C000008BB38B7FFF
:100280008BBBEFE9FFE03197F1F700C00000089564
:100290008AB38C6F8ABB83E00E94D8008FE79EE30D
:1002A0000197F1F700C0000083E00E94D8008FE7BB
:1002B0009EE30197F1F700C0000083E00E94D800A0
:1002C0008FE79EE30197F1F700C0000082E00E94F3
:1002D000D80088E20E94D80088E00E94D80081E01F
:1002E0000E94D80086E00E94D8008CE00E94D800CE
:1002F0009FEF29EF80E0915020408040E1F700C05F
:10030000000008959BB398609BBB882324F49BB3A3
:1003100090689BBB03C09BB39F779BBB86FF04C0C9
:100320009BB390649BBB03C09BB39F7B9BBB85FF30
:1003300004C09BB390629BBB03C09BB39F7D9BBBE0
:1003400084FF04C09BB390619BBB03C09BB39F7EA3
:100350009BBB9BB394609BBBEFE9FFE03197F1F748
:1003600000C000009BB39B7F9BBBEFE9FFE0319790
:10037000F1F700C0000083FF04C09BB390689BBBF3
:1003800003C09BB39F779BBB82FF04C09BB3906469
:100390009BBB03C09BB39F7B9BBB81FF04C09BB3F4
:1003A00090629BBB03C09BB39F7D9BBB80FF04C03F
:1003B0008BB380618BBB03C08BB38F7E8BBB8BB346
:1003C00084608BBB8FE99FE00197F1F700C00000CC
:1003D0008BB38B7F8BBBEFE9FFE03197F1F700C068
:1003E000000008950F931F93CF938C01C0E003C0CA
:1003F0000E948201CF5FF801EC0FF11DC7FDFA9555
:1004000080818111F5CFCF911F910F910895EF92C7
:10041000FF921F93CF93DF93CDB7DEB72A970FB626
:10042000F894DEBF0FBECDBF7C01892B19F480E3A9
:100430000E94820110E02FC09701ADECBCEC0E943D
:1004400088049695879596958795969587959C01AE
:10045000220F331F880F991F880F991F880F991F2C
:10046000820F931F9701281B390BC901E1E0F0E0CF
:10047000EC0FFD1FE10FF11D17FDFA95805D8083E4
:1004800097010E9488047C01F694E794F694E7941F
:10049000F694E7941F5FE114F10471F611500CC05B
:1004A000E1E0F0E0EC0FFD1FE10FF11D17FDFA9503
:1004B00080810E9482011150112394F72A960FB671
:1004C000F894DEBF0FBECDBFDF91CF911F91FF909B
:1004D000EF900895809171008F5F80937100803854
:1004E00009F08FC080916C008230C9F128F4882314
:1004F00061F08130E1F083C0843009F45AC008F41F
:1005000040C0853009F467C07AC0809170009DECCE
:10051000899F812D112461E08695869586950E949C
:10052000E80380916C008F5F80936C0068C08091BD
:1005300070009DEC899F912D112496959695969526
:10054000990F292F220F220F920F62E0891B0E9420
:10055000E80380916C008F5F80936C0050C08091A5
:100560006F009DEC899F812D112463E0869586950F
:1005700086950E94E80380916C008F5F80936C00E9
:100580003EC080916F009DEC899F912D112496951E
:1005900096959695990F292F220F220F920F64E0BE
:1005A000891B0E94E80380916C008F5F80936C0030
:1005B00026C080916E009DEC899F812D112465E0FD
:1005C0008695869586950E94E80380916C008F5FE2
:1005D00080936C0014C080916E009DEC899F912DDA
:1005E0001124969596959695990F292F220F220FF3
:1005F000920F66E0891B0E94E80310926C00109233
:100600007100089580E80E94D80080916E0090E00B
:100610000E9407028AE690E00E94F20180916F003A
:1006200090E00E9407028AE690E00E94F201809129
:10063000700090E00E94070208950E94E1030E946A
:1006400049000E9475048CE70E9416048AE692E035
:1006500090937600809375000E9448010E944E009E
:10066000C82F0E94020380916F008C3339F41092DE
:100670006F0080916E008F5F80936E00C33671F7BC
:1006800081E080936D000E944E008336E1F30E946A
:100690004E008823E1F30E944E002AC08B3291F471
:1006A00080916F008B3311F410926F0080916F0076
:1006B0008F5F80936F000E9402030E944E008B3276
:1006C000E1F314C08D3291F480916F00811103C069
:1006D0008BE380936F0080916F00815080936F0057
:1006E0000E9402030E944E008D32E1F30E944E00F0
:1006F0008336A1F60E944E008336E1F30E944E003D
:100700008823E1F30E944E002AC08B3291F480913D
:100710006E00883111F410926E0080916E008F5F30
:1007200080936E000E9402030E944E008B32E1F320
:1007300014C08D3291F480916E00811103C088E164
:1007400080936E0080916E00815080936E000E94B5
:1007500002030E944E008D32E1F30E944E00833668
:10076000A1F610926D000E944E008336E1F376CF21
:100770001F920F920FB60F9211248F9380916D00EC
:10078000811119C0809172008F5F80937200843F45
:1007900091F4809170008F5F809370008091700061
:1007A0008C3339F41092700080916F008F5F8093CA
:1007B0006F00109272008F910F900FBE0F901F90DC
:1007C000189584B38F6784BB81B38F6381BB089511
:1007D0009FEF92BBE82FF0E0E05AFF4F808185BB8E
:1007E0006330A1F028F4613049F0623059F0089587
:1007F0006530A1F078F06630A9F0089582B38E7F5D
:1008000082BB089582B38D7F82BB089582B38B7FB4
:1008100082BB089582B3877F82BB089582B38F7EA7
:1008200082BB089582B38F7D82BB089593B7916098
:1008300093BF93B7906893BF93B7986093BF8CBFF3
:1008400089B7826089BF8FB780688FBF08951F9274
:100850000F920FB60F9211242F933F934F935F93F4
:100860006F937F938F939F93AF93BF93EF93FF9378
:10087000E0917300F09174000995FF91EF91BF91A1
:10088000AF919F918F917F916F915F914F913F9128
:100890002F910F900FBE0F901F9018951F920F92DF
:1008A0000FB60F9211242F933F934F935F936F9343
:1008B0007F938F939F93AF93BF93EF93FF93E091B9
:1008C0007500F09176000995FF91EF91BF91AF917E
:1008D0009F918F917F916F915F914F913F912F9158
:1008E0000F900FBE0F901F9018958EB581608EBD32
:1008F00083B7806483BF89B7846089BF8FB5886000
:100900008FBD8FB584608FBD8FB780688FBF08950E
:10091000A29FB001B39FC001A39F700D811D112440
:10092000911DB29F700D811D1124911D0895F894A1
:02093000FFCFF7
:0C0932003F065B4F666D7D077F6F3A004B
:00000001FF
